{
  "contractName": "EventManager",
  "abi": [
    {
      "anonymous": false,
      "inputs": [
        {
          "indexed": false,
          "internalType": "uint256",
          "name": "eventId",
          "type": "uint256"
        },
        {
          "indexed": false,
          "internalType": "address",
          "name": "booker",
          "type": "address"
        }
      ],
      "name": "EventBooked",
      "type": "event"
    },
    {
      "anonymous": false,
      "inputs": [
        {
          "indexed": false,
          "internalType": "uint256",
          "name": "eventId",
          "type": "uint256"
        }
      ],
      "name": "EventCreated",
      "type": "event"
    },
    {
      "anonymous": false,
      "inputs": [
        {
          "indexed": false,
          "internalType": "address",
          "name": "",
          "type": "address"
        },
        {
          "indexed": false,
          "internalType": "string",
          "name": "",
          "type": "string"
        },
        {
          "indexed": false,
          "internalType": "uint256",
          "name": "",
          "type": "uint256"
        },
        {
          "indexed": false,
          "internalType": "uint256",
          "name": "",
          "type": "uint256"
        },
        {
          "indexed": false,
          "internalType": "uint256",
          "name": "",
          "type": "uint256"
        }
      ],
      "name": "EventDetails",
      "type": "event"
    },
    {
      "inputs": [
        {
          "internalType": "uint256",
          "name": "",
          "type": "uint256"
        }
      ],
      "name": "events",
      "outputs": [
        {
          "internalType": "address",
          "name": "organiser",
          "type": "address"
        },
        {
          "internalType": "string",
          "name": "name",
          "type": "string"
        },
        {
          "internalType": "uint256",
          "name": "startTime",
          "type": "uint256"
        },
        {
          "internalType": "uint256",
          "name": "endTime",
          "type": "uint256"
        },
        {
          "internalType": "uint256",
          "name": "bookingCost",
          "type": "uint256"
        },
        {
          "internalType": "bool",
          "name": "exists",
          "type": "bool"
        }
      ],
      "stateMutability": "view",
      "type": "function",
      "constant": true
    },
    {
      "inputs": [
        {
          "internalType": "string",
          "name": "_name",
          "type": "string"
        },
        {
          "internalType": "uint256",
          "name": "_startTime",
          "type": "uint256"
        },
        {
          "internalType": "uint256",
          "name": "_endTime",
          "type": "uint256"
        },
        {
          "internalType": "uint256",
          "name": "_bookingCost",
          "type": "uint256"
        }
      ],
      "name": "createEvent",
      "outputs": [],
      "stateMutability": "nonpayable",
      "type": "function"
    },
    {
      "inputs": [
        {
          "internalType": "uint256",
          "name": "_eventId",
          "type": "uint256"
        }
      ],
      "name": "bookEvent",
      "outputs": [],
      "stateMutability": "payable",
      "type": "function",
      "payable": true
    },
    {
      "inputs": [
        {
          "internalType": "uint256",
          "name": "_eventId",
          "type": "uint256"
        }
      ],
      "name": "checkBooking",
      "outputs": [
        {
          "internalType": "bool",
          "name": "",
          "type": "bool"
        }
      ],
      "stateMutability": "view",
      "type": "function",
      "constant": true
    },
    {
      "inputs": [
        {
          "internalType": "uint256",
          "name": "_eventId",
          "type": "uint256"
        }
      ],
      "name": "getEventDetails",
      "outputs": [],
      "stateMutability": "nonpayable",
      "type": "function"
    }
  ],
  "bytecode": "0x608060405234801561001057600080fd5b506109d6806100206000396000f3fe60806040526004361061004a5760003560e01c80630374ab0b1461004f5780630b791430146100715780631624d282146100ac57806389f9199a146100d9578063ec38d5a0146100ec575b600080fd5b34801561005b57600080fd5b5061006f61006a366004610566565b61010c565b005b34801561007d57600080fd5b5061009161008c36600461061d565b6101d5565b6040516100a396959493929190610679565b60405180910390f35b3480156100b857600080fd5b506100cc6100c736600461061d565b6102a0565b6040516100a391906107a9565b61006f6100e736600461061d565b610301565b3480156100f857600080fd5b5061006f61010736600461061d565b610437565b6000338585856040516020016101259493929190610635565b60408051601f19818403018152918152815160209283012060008181528084529190912080546001600160a01b031916331781558751919350916101709160018401918901906104cd565b5060028101859055600381018490556004810183905560058101805460ff191660011790556040517f748ff5cfd7b66bdd8e21581c2a864756fe7085378c0003183e579bfafba28325906101c59084906108f3565b60405180910390a1505050505050565b600060208190529081526040902080546001820180546001600160a01b0390921692916102019061094f565b80601f016020809104026020016040519081016040528092919081815260200182805461022d9061094f565b801561027a5780601f1061024f5761010080835404028352916020019161027a565b820191906000526020600020905b81548152906001019060200180831161025d57829003601f168201915b505050506002830154600384015460048501546005909501549394919390925060ff1686565b60008181526020819052604081206005015460ff1615156001146102df5760405162461bcd60e51b81526004016102d6906108b2565b60405180910390fd5b5060009081526020818152604080832033845260060190915290205460ff1690565b60008181526020819052604090206005015460ff1615156001146103375760405162461bcd60e51b81526004016102d6906107f7565b60008181526020818152604080832033845260060190915290205460ff16156103725760405162461bcd60e51b81526004016102d6906107b4565b60008181526020819052604090206003015442106103a25760405162461bcd60e51b81526004016102d690610839565b60008181526020819052604090206004015434146103d25760405162461bcd60e51b81526004016102d690610870565b60008181526020818152604080832033808552600690910190925291829020805460ff1916600117905590517f65ba4d491055fa759e036d9608c12dd622343386ed9ee0a684b11ce3ac1fa8ee9161042c918491906108fc565b60405180910390a150565b60008181526020819052604090206005015460ff16151560011461046d5760405162461bcd60e51b81526004016102d6906108b2565b60008181526020819052604090819020805460028201546003830154600484015494517fcb817ec6b45e67ce7cf48f071219387c2764e6d49903f385111c439b1171959f9561042c956001600160a01b03909516946001019392916106d9565b8280546104d99061094f565b90600052602060002090601f0160209004810192826104fb5760008555610541565b82601f1061051457805160ff1916838001178555610541565b82800160010185558215610541579182015b82811115610541578251825591602001919060010190610526565b5061054d929150610551565b5090565b5b8082111561054d5760008155600101610552565b6000806000806080858703121561057b578384fd5b843567ffffffffffffffff80821115610592578586fd5b818701915087601f8301126105a5578586fd5b81356020828211156105b9576105b961098a565b604051601f8301601f19168101820184811182821017156105dc576105dc61098a565b60405282815284830182018b10156105f2578889fd5b8282860183830137918201810197909752989587013597505050604085013594606001359392505050565b60006020828403121561062e578081fd5b5035919050565b60006bffffffffffffffffffffffff198660601b168252845161065f81601485016020890161091f565b909101601481019390935250603482015260540192915050565b600060018060a01b038816825260c0602083015286518060c08401526106a68160e0850160208b0161091f565b60408301969096525060608101939093526080830191909152151560a082015260e0601f909201601f1916010192915050565b6001600160a01b038616815260a060208083019190915285546000919082906002810460018281168061070d57607f831692505b85831081141561072b57634e487b7160e01b87526022600452602487fd5b6107388360a08a016108f3565b81801561074c576001811461075d57610787565b60ff19861682528782019650610787565b6107668e610913565b895b8681101561078157815484820152908501908901610768565b83019750505b5050505050604085019790975260608401959095525050608001529392505050565b901515815260200190565b60208082526023908201527f596f75206861766520616c726561647920626f6f6b65642074686973206576656040820152626e742160e81b606082015260800190565b60208082526022908201527f4576656e742077697468207468617420494420646f6573206e6f7420657869736040820152613a1760f11b606082015260800190565b6020808252601c908201527f546865206576656e742068617320616c726561647920656e6465642e00000000604082015260600190565b60208082526022908201527f57726f6e6720626f6f6b696e6720636f73742073656e7420666f72206576656e6040820152613a1760f11b606082015260800190565b60208082526021908201527f4576656e742077697468207468617420494420646f6573206e6f7420657869736040820152601d60fa1b606082015260800190565b90815260200190565b9182526001600160a01b0316602082015260400190565b60009081526020902090565b60005b8381101561093a578181015183820152602001610922565b83811115610949576000848401525b50505050565b60028104600182168061096357607f821691505b6020821081141561098457634e487b7160e01b600052602260045260246000fd5b50919050565b634e487b7160e01b600052604160045260246000fdfea2646970667358221220d9b3cf32e3cd6473a752c1324f50cf0c72fe321dd588216576a43ea4020991a764736f6c63430008000033",
  "immutableReferences": {},
  "source": "pragma solidity ^0.8.0;\n\ncontract EventManager { \n\n    struct Event {\n        address organiser;\n        string name;\n        uint startTime;\n        uint endTime;\n        uint bookingCost;\n        bool exists;\n        mapping (address => bool) bookings;\n    }\n\n    event EventCreated(uint eventId);\n    event EventBooked(uint eventId, address booker);\n    event EventDetails(address, string, uint, uint, uint);\n\n    mapping (uint => Event) public events;\n\n    // organiser creates new event\n    function createEvent(string memory _name, uint _startTime, uint _endTime, uint _bookingCost) public {\n        // require(_startTime > block.timestamp && _endTime > _startTime, \"Event time must be in the future.\");\n        // require(_bookingCost >= 0, \"Negative booking cost now allowed.\");\n        \n        uint eventId = uint(keccak256(abi.encodePacked(msg.sender, _name, _startTime, _endTime)));\n        // require(events[eventId].exists == false, \"Event of this name and time already created by this user!\");\n        \n        // event created this way to allow for nested mappings\n        // ( events[eventId] = Event(msg.sender, _name, _startTime, _endTime, _bookingCost, true) )\n        Event storage e = events[eventId];\n        e.organiser = msg.sender;\n        e.name = _name;\n        e.startTime = _startTime;\n        e.endTime = _endTime;\n        e.bookingCost = _bookingCost;\n        e.exists = true;\n        \n        emit EventCreated(eventId);\n    }\n\n    // user books the event by depositing the required amount and supplying event id\n    function bookEvent(uint _eventId) public payable {\n        require(events[_eventId].exists == true, \"Event with that ID does not exist.\");\n        require(events[_eventId].bookings[msg.sender] == false, \"You have already booked this event!\");\n        require(events[_eventId].endTime > block.timestamp, \"The event has already ended.\");\n        require(events[_eventId].bookingCost == msg.value, \"Wrong booking cost sent for event.\");\n        \n        events[_eventId].bookings[msg.sender] = true;\n        emit EventBooked(_eventId, msg.sender);\n    }\n\n    // check if user has booked a specific event or not\n    function checkBooking(uint _eventId) public view returns (bool) {\n        require(events[_eventId].exists == true, \"Event with that ID does not exist\");\n        return events[_eventId].bookings[msg.sender];\n    }\n\n    // return details from specific event struct\n    function getEventDetails(uint _eventId) public {\n        require(events[_eventId].exists == true, \"Event with that ID does not exist\");\n        emit EventDetails(events[_eventId].organiser, events[_eventId].name, events[_eventId].startTime, events[_eventId].endTime, events[_eventId].bookingCost);\n    }\n}",
  "sourcePath": "/Users/ishab/Desktop/evnt3/backend/contracts/EventManager.sol",
  "compiler": {
    "name": "solc",
    "version": "0.8.0+commit.c7dfd78e.Emscripten.clang"
  },
  "schemaVersion": "3.4.10",
  "updatedAt": "2022-10-22T16:21:51.388Z",
  "networkType": "ethereum",
  "devdoc": {
    "kind": "dev",
    "methods": {},
    "version": 1
  },
  "userdoc": {
    "kind": "user",
    "methods": {},
    "version": 1
  }
}