{
  "contractName": "EventManager",
  "abi": [
    {
      "anonymous": false,
      "inputs": [
        {
          "indexed": false,
          "internalType": "uint256",
          "name": "eventId",
          "type": "uint256"
        },
        {
          "indexed": false,
          "internalType": "address",
          "name": "booker",
          "type": "address"
        }
      ],
      "name": "EventBooked",
      "type": "event"
    },
    {
      "anonymous": false,
      "inputs": [
        {
          "indexed": false,
          "internalType": "uint256",
          "name": "eventId",
          "type": "uint256"
        }
      ],
      "name": "EventCreated",
      "type": "event"
    },
    {
      "anonymous": false,
      "inputs": [
        {
          "indexed": false,
          "internalType": "address",
          "name": "",
          "type": "address"
        },
        {
          "indexed": false,
          "internalType": "string",
          "name": "",
          "type": "string"
        },
        {
          "indexed": false,
          "internalType": "uint256",
          "name": "",
          "type": "uint256"
        },
        {
          "indexed": false,
          "internalType": "uint256",
          "name": "",
          "type": "uint256"
        },
        {
          "indexed": false,
          "internalType": "uint256",
          "name": "",
          "type": "uint256"
        }
      ],
      "name": "EventDetails",
      "type": "event"
    },
    {
      "inputs": [
        {
          "internalType": "uint256",
          "name": "",
          "type": "uint256"
        }
      ],
      "name": "events",
      "outputs": [
        {
          "internalType": "address",
          "name": "organiser",
          "type": "address"
        },
        {
          "internalType": "string",
          "name": "name",
          "type": "string"
        },
        {
          "internalType": "uint256",
          "name": "startTime",
          "type": "uint256"
        },
        {
          "internalType": "uint256",
          "name": "endTime",
          "type": "uint256"
        },
        {
          "internalType": "uint256",
          "name": "bookingCost",
          "type": "uint256"
        },
        {
          "internalType": "bool",
          "name": "exists",
          "type": "bool"
        }
      ],
      "stateMutability": "view",
      "type": "function",
      "constant": true
    },
    {
      "inputs": [
        {
          "internalType": "string",
          "name": "_name",
          "type": "string"
        },
        {
          "internalType": "uint256",
          "name": "_startTime",
          "type": "uint256"
        },
        {
          "internalType": "uint256",
          "name": "_endTime",
          "type": "uint256"
        },
        {
          "internalType": "uint256",
          "name": "_bookingCost",
          "type": "uint256"
        }
      ],
      "name": "createEvent",
      "outputs": [],
      "stateMutability": "nonpayable",
      "type": "function"
    },
    {
      "inputs": [
        {
          "internalType": "uint256",
          "name": "_eventId",
          "type": "uint256"
        }
      ],
      "name": "bookEvent",
      "outputs": [],
      "stateMutability": "payable",
      "type": "function",
      "payable": true
    },
    {
      "inputs": [
        {
          "internalType": "uint256",
          "name": "_eventId",
          "type": "uint256"
        }
      ],
      "name": "checkBooking",
      "outputs": [
        {
          "internalType": "bool",
          "name": "",
          "type": "bool"
        }
      ],
      "stateMutability": "view",
      "type": "function",
      "constant": true
    },
    {
      "inputs": [
        {
          "internalType": "uint256",
          "name": "_eventId",
          "type": "uint256"
        }
      ],
      "name": "getEventDetails",
      "outputs": [],
      "stateMutability": "nonpayable",
      "type": "function"
    },
    {
      "inputs": [],
      "name": "withdraw",
      "outputs": [],
      "stateMutability": "nonpayable",
      "type": "function"
    }
  ],
  "bytecode": "0x608060405234801561001057600080fd5b50610b23806100206000396000f3fe6080604052600436106100555760003560e01c80630374ab0b1461005a5780630b7914301461007c5780631624d282146100b75780633ccfd60b146100e457806389f9199a146100f9578063ec38d5a01461010c575b600080fd5b34801561006657600080fd5b5061007a610075366004610615565b61012c565b005b34801561008857600080fd5b5061009c6100973660046106cc565b61025b565b6040516100ae96959493929190610728565b60405180910390f35b3480156100c357600080fd5b506100d76100d23660046106cc565b610326565b6040516100ae9190610858565b3480156100f057600080fd5b5061007a61037e565b61007a6101073660046106cc565b6103b0565b34801561011857600080fd5b5061007a6101273660046106cc565b6104e6565b428311801561013a57508282115b61015f5760405162461bcd60e51b8152600401610156906109be565b60405180910390fd5b60003385858560405160200161017894939291906106e4565b60408051601f19818403018152918152815160209283012060008181529283905291206005015490915060ff16156101c25760405162461bcd60e51b815260040161015690610961565b60008181526020818152604090912080546001600160a01b03191633178155865190916101f691600184019189019061057c565b5060028101859055600381018490556004810183905560058101805460ff191660011790556040517f748ff5cfd7b66bdd8e21581c2a864756fe7085378c0003183e579bfafba283259061024b908490610a40565b60405180910390a1505050505050565b600060208190529081526040902080546001820180546001600160a01b03909216929161028790610a9c565b80601f01602080910402602001604051908101604052809291908181526020018280546102b390610a9c565b80156103005780601f106102d557610100808354040283529160200191610300565b820191906000526020600020905b8154815290600101906020018083116102e357829003601f168201915b505050506002830154600384015460048501546005909501549394919390925060ff1686565b60008181526020819052604081206005015460ff16151560011461035c5760405162461bcd60e51b8152600401610156906109ff565b5060009081526020818152604080832033845260060190915290205460ff1690565b604051339060009066038d7ea4c680009082818181858883f193505050501580156103ad573d6000803e3d6000fd5b50565b60008181526020819052604090206005015460ff1615156001146103e65760405162461bcd60e51b8152600401610156906108a6565b60008181526020818152604080832033845260060190915290205460ff16156104215760405162461bcd60e51b815260040161015690610863565b60008181526020819052604090206003015442106104515760405162461bcd60e51b8152600401610156906108e8565b60008181526020819052604090206004015434146104815760405162461bcd60e51b81526004016101569061091f565b60008181526020818152604080832033808552600690910190925291829020805460ff1916600117905590517f65ba4d491055fa759e036d9608c12dd622343386ed9ee0a684b11ce3ac1fa8ee916104db91849190610a49565b60405180910390a150565b60008181526020819052604090206005015460ff16151560011461051c5760405162461bcd60e51b8152600401610156906109ff565b60008181526020819052604090819020805460028201546003830154600484015494517fcb817ec6b45e67ce7cf48f071219387c2764e6d49903f385111c439b1171959f956104db956001600160a01b0390951694600101939291610788565b82805461058890610a9c565b90600052602060002090601f0160209004810192826105aa57600085556105f0565b82601f106105c357805160ff19168380011785556105f0565b828001600101855582156105f0579182015b828111156105f05782518255916020019190600101906105d5565b506105fc929150610600565b5090565b5b808211156105fc5760008155600101610601565b6000806000806080858703121561062a578384fd5b843567ffffffffffffffff80821115610641578586fd5b818701915087601f830112610654578586fd5b813560208282111561066857610668610ad7565b604051601f8301601f191681018201848111828210171561068b5761068b610ad7565b60405282815284830182018b10156106a1578889fd5b8282860183830137918201810197909752989587013597505050604085013594606001359392505050565b6000602082840312156106dd578081fd5b5035919050565b60006bffffffffffffffffffffffff198660601b168252845161070e816014850160208901610a6c565b909101601481019390935250603482015260540192915050565b600060018060a01b038816825260c0602083015286518060c08401526107558160e0850160208b01610a6c565b60408301969096525060608101939093526080830191909152151560a082015260e0601f909201601f1916010192915050565b6001600160a01b038616815260a06020808301919091528554600091908290600281046001828116806107bc57607f831692505b8583108114156107da57634e487b7160e01b87526022600452602487fd5b6107e78360a08a01610a40565b8180156107fb576001811461080c57610836565b60ff19861682528782019650610836565b6108158e610a60565b895b8681101561083057815484820152908501908901610817565b83019750505b5050505050604085019790975260608401959095525050608001529392505050565b901515815260200190565b60208082526023908201527f596f75206861766520616c726561647920626f6f6b65642074686973206576656040820152626e742160e81b606082015260800190565b60208082526022908201527f4576656e742077697468207468617420494420646f6573206e6f7420657869736040820152613a1760f11b606082015260800190565b6020808252601c908201527f546865206576656e742068617320616c726561647920656e6465642e00000000604082015260600190565b60208082526022908201527f57726f6e6720626f6f6b696e6720636f73742073656e7420666f72206576656e6040820152613a1760f11b606082015260800190565b60208082526039908201527f4576656e74206f662074686973206e616d6520616e642074696d6520616c726560408201527f6164792063726561746564206279207468697320757365722100000000000000606082015260800190565b60208082526021908201527f4576656e742074696d65206d75737420626520696e20746865206675747572656040820152601760f91b606082015260800190565b60208082526021908201527f4576656e742077697468207468617420494420646f6573206e6f7420657869736040820152601d60fa1b606082015260800190565b90815260200190565b9182526001600160a01b0316602082015260400190565b60009081526020902090565b60005b83811015610a87578181015183820152602001610a6f565b83811115610a96576000848401525b50505050565b600281046001821680610ab057607f821691505b60208210811415610ad157634e487b7160e01b600052602260045260246000fd5b50919050565b634e487b7160e01b600052604160045260246000fdfea264697066735822122011d43e1a2e24a44f70f2e6ecd9c2a05432309dd4b8b8ca3fcb7a6598836eeda864736f6c63430008000033",
  "immutableReferences": {},
  "source": "pragma solidity ^0.8.0;\n\ncontract EventManager { \n\n    struct Event {\n        address organiser;\n        string name;\n        uint startTime;\n        uint endTime;\n        uint bookingCost;\n        bool exists;\n        mapping (address => bool) bookings;\n    }\n\n    event EventCreated(uint eventId);\n    event EventBooked(uint eventId, address booker);\n    event EventDetails(address, string, uint, uint, uint);\n\n    mapping (uint => Event) public events;\n\n    // organiser creates new event\n    function createEvent(string memory _name, uint _startTime, uint _endTime, uint _bookingCost) public {\n        require(_startTime > block.timestamp && _endTime > _startTime, \"Event time must be in the future.\");\n        require(_bookingCost >= 0, \"Negative booking cost now allowed.\");\n        \n        uint eventId = uint(keccak256(abi.encodePacked(msg.sender, _name, _startTime, _endTime)));\n        require(events[eventId].exists == false, \"Event of this name and time already created by this user!\");\n        \n        // event created this way to allow for nested mappings\n        // ( events[eventId] = Event(msg.sender, _name, _startTime, _endTime, _bookingCost, true) )\n        Event storage e = events[eventId];\n        e.organiser = msg.sender;\n        e.name = _name;\n        e.startTime = _startTime;\n        e.endTime = _endTime;\n        e.bookingCost = _bookingCost;\n        e.exists = true;\n        \n        emit EventCreated(eventId);\n    }\n\n    // user books the event by depositing the required amount and supplying event id\n    function bookEvent(uint _eventId) public payable {\n        require(events[_eventId].exists == true, \"Event with that ID does not exist.\");\n        require(events[_eventId].bookings[msg.sender] == false, \"You have already booked this event!\");\n        require(events[_eventId].endTime > block.timestamp, \"The event has already ended.\");\n        require(events[_eventId].bookingCost == msg.value, \"Wrong booking cost sent for event.\");\n        \n        events[_eventId].bookings[msg.sender] = true;\n        emit EventBooked(_eventId, msg.sender);\n    }\n\n    // check if user has booked a specific event or not\n    function checkBooking(uint _eventId) public view returns (bool) {\n        require(events[_eventId].exists == true, \"Event with that ID does not exist\");\n        return events[_eventId].bookings[msg.sender];\n    }\n\n    // return details from specific event struct\n    function getEventDetails(uint _eventId) public {\n        require(events[_eventId].exists == true, \"Event with that ID does not exist\");\n        emit EventDetails(events[_eventId].organiser, events[_eventId].name, events[_eventId].startTime, events[_eventId].endTime, events[_eventId].bookingCost);\n    }\n\n    // allow user to get their deposit on event back\n    function withdraw() public {\n        payable(msg.sender).transfer(0.001 ether);\n    }\n}",
  "sourcePath": "/Users/ishab/Desktop/evnt3/backend/contracts/EventManager.sol",
  "compiler": {
    "name": "solc",
    "version": "0.8.0+commit.c7dfd78e.Emscripten.clang"
  },
  "schemaVersion": "3.4.10",
  "updatedAt": "2022-10-22T18:58:25.517Z",
  "networkType": "ethereum",
  "devdoc": {
    "kind": "dev",
    "methods": {},
    "version": 1
  },
  "userdoc": {
    "kind": "user",
    "methods": {},
    "version": 1
  }
}